{
  "_format": "hh-sol-artifact-1",
  "contractName": "BaseVibeToken",
  "sourceName": "contracts/BaseVibeToken.sol",
  "abi": [
    {
      "inputs": [],
      "stateMutability": "nonpayable",
      "type": "constructor"
    },
    {
      "inputs": [
        {
          "internalType": "address",
          "name": "spender",
          "type": "address"
        },
        {
          "internalType": "uint256",
          "name": "allowance",
          "type": "uint256"
        },
        {
          "internalType": "uint256",
          "name": "needed",
          "type": "uint256"
        }
      ],
      "name": "ERC20InsufficientAllowance",
      "type": "error"
    },
    {
      "inputs": [
        {
          "internalType": "address",
          "name": "sender",
          "type": "address"
        },
        {
          "internalType": "uint256",
          "name": "balance",
          "type": "uint256"
        },
        {
          "internalType": "uint256",
          "name": "needed",
          "type": "uint256"
        }
      ],
      "name": "ERC20InsufficientBalance",
      "type": "error"
    },
    {
      "inputs": [
        {
          "internalType": "address",
          "name": "approver",
          "type": "address"
        }
      ],
      "name": "ERC20InvalidApprover",
      "type": "error"
    },
    {
      "inputs": [
        {
          "internalType": "address",
          "name": "receiver",
          "type": "address"
        }
      ],
      "name": "ERC20InvalidReceiver",
      "type": "error"
    },
    {
      "inputs": [
        {
          "internalType": "address",
          "name": "sender",
          "type": "address"
        }
      ],
      "name": "ERC20InvalidSender",
      "type": "error"
    },
    {
      "inputs": [
        {
          "internalType": "address",
          "name": "spender",
          "type": "address"
        }
      ],
      "name": "ERC20InvalidSpender",
      "type": "error"
    },
    {
      "inputs": [],
      "name": "EnforcedPause",
      "type": "error"
    },
    {
      "inputs": [],
      "name": "ExpectedPause",
      "type": "error"
    },
    {
      "inputs": [
        {
          "internalType": "address",
          "name": "owner",
          "type": "address"
        }
      ],
      "name": "OwnableInvalidOwner",
      "type": "error"
    },
    {
      "inputs": [
        {
          "internalType": "address",
          "name": "account",
          "type": "address"
        }
      ],
      "name": "OwnableUnauthorizedAccount",
      "type": "error"
    },
    {
      "inputs": [],
      "name": "ReentrancyGuardReentrantCall",
      "type": "error"
    },
    {
      "anonymous": false,
      "inputs": [
        {
          "indexed": true,
          "internalType": "address",
          "name": "owner",
          "type": "address"
        },
        {
          "indexed": true,
          "internalType": "address",
          "name": "spender",
          "type": "address"
        },
        {
          "indexed": false,
          "internalType": "uint256",
          "name": "value",
          "type": "uint256"
        }
      ],
      "name": "Approval",
      "type": "event"
    },
    {
      "anonymous": false,
      "inputs": [
        {
          "indexed": true,
          "internalType": "address",
          "name": "validator",
          "type": "address"
        }
      ],
      "name": "BaseValidatorAdded",
      "type": "event"
    },
    {
      "anonymous": false,
      "inputs": [
        {
          "indexed": true,
          "internalType": "address",
          "name": "validator",
          "type": "address"
        }
      ],
      "name": "BaseValidatorRemoved",
      "type": "event"
    },
    {
      "anonymous": false,
      "inputs": [
        {
          "indexed": true,
          "internalType": "address",
          "name": "previousOwner",
          "type": "address"
        },
        {
          "indexed": true,
          "internalType": "address",
          "name": "newOwner",
          "type": "address"
        }
      ],
      "name": "OwnershipTransferred",
      "type": "event"
    },
    {
      "anonymous": false,
      "inputs": [
        {
          "indexed": false,
          "internalType": "address",
          "name": "account",
          "type": "address"
        }
      ],
      "name": "Paused",
      "type": "event"
    },
    {
      "anonymous": false,
      "inputs": [
        {
          "indexed": true,
          "internalType": "address",
          "name": "user",
          "type": "address"
        },
        {
          "indexed": false,
          "internalType": "uint256",
          "name": "amount",
          "type": "uint256"
        }
      ],
      "name": "StakingRewardClaimed",
      "type": "event"
    },
    {
      "anonymous": false,
      "inputs": [
        {
          "indexed": true,
          "internalType": "address",
          "name": "to",
          "type": "address"
        },
        {
          "indexed": false,
          "internalType": "uint256",
          "name": "amount",
          "type": "uint256"
        }
      ],
      "name": "TokensMinted",
      "type": "event"
    },
    {
      "anonymous": false,
      "inputs": [
        {
          "indexed": true,
          "internalType": "address",
          "name": "from",
          "type": "address"
        },
        {
          "indexed": true,
          "internalType": "address",
          "name": "to",
          "type": "address"
        },
        {
          "indexed": false,
          "internalType": "uint256",
          "name": "value",
          "type": "uint256"
        }
      ],
      "name": "Transfer",
      "type": "event"
    },
    {
      "anonymous": false,
      "inputs": [
        {
          "indexed": false,
          "internalType": "address",
          "name": "account",
          "type": "address"
        }
      ],
      "name": "Unpaused",
      "type": "event"
    },
    {
      "inputs": [],
      "name": "INITIAL_SUPPLY",
      "outputs": [
        {
          "internalType": "uint256",
          "name": "",
          "type": "uint256"
        }
      ],
      "stateMutability": "view",
      "type": "function"
    },
    {
      "inputs": [],
      "name": "MAX_SUPPLY",
      "outputs": [
        {
          "internalType": "uint256",
          "name": "",
          "type": "uint256"
        }
      ],
      "stateMutability": "view",
      "type": "function"
    },
    {
      "inputs": [
        {
          "internalType": "address",
          "name": "validator",
          "type": "address"
        }
      ],
      "name": "addBaseValidator",
      "outputs": [],
      "stateMutability": "nonpayable",
      "type": "function"
    },
    {
      "inputs": [
        {
          "internalType": "address",
          "name": "owner",
          "type": "address"
        },
        {
          "internalType": "address",
          "name": "spender",
          "type": "address"
        }
      ],
      "name": "allowance",
      "outputs": [
        {
          "internalType": "uint256",
          "name": "",
          "type": "uint256"
        }
      ],
      "stateMutability": "view",
      "type": "function"
    },
    {
      "inputs": [
        {
          "internalType": "address",
          "name": "spender",
          "type": "address"
        },
        {
          "internalType": "uint256",
          "name": "value",
          "type": "uint256"
        }
      ],
      "name": "approve",
      "outputs": [
        {
          "internalType": "bool",
          "name": "",
          "type": "bool"
        }
      ],
      "stateMutability": "nonpayable",
      "type": "function"
    },
    {
      "inputs": [
        {
          "internalType": "address",
          "name": "account",
          "type": "address"
        }
      ],
      "name": "balanceOf",
      "outputs": [
        {
          "internalType": "uint256",
          "name": "",
          "type": "uint256"
        }
      ],
      "stateMutability": "view",
      "type": "function"
    },
    {
      "inputs": [
        {
          "internalType": "address",
          "name": "to",
          "type": "address"
        },
        {
          "internalType": "uint256",
          "name": "amount",
          "type": "uint256"
        }
      ],
      "name": "baseTransfer",
      "outputs": [
        {
          "internalType": "bool",
          "name": "",
          "type": "bool"
        }
      ],
      "stateMutability": "nonpayable",
      "type": "function"
    },
    {
      "inputs": [
        {
          "internalType": "address",
          "name": "",
          "type": "address"
        }
      ],
      "name": "baseValidators",
      "outputs": [
        {
          "internalType": "bool",
          "name": "",
          "type": "bool"
        }
      ],
      "stateMutability": "view",
      "type": "function"
    },
    {
      "inputs": [],
      "name": "claimStakingRewards",
      "outputs": [],
      "stateMutability": "nonpayable",
      "type": "function"
    },
    {
      "inputs": [],
      "name": "decimals",
      "outputs": [
        {
          "internalType": "uint8",
          "name": "",
          "type": "uint8"
        }
      ],
      "stateMutability": "view",
      "type": "function"
    },
    {
      "inputs": [
        {
          "internalType": "address",
          "name": "account",
          "type": "address"
        }
      ],
      "name": "getStakingRewards",
      "outputs": [
        {
          "internalType": "uint256",
          "name": "",
          "type": "uint256"
        }
      ],
      "stateMutability": "view",
      "type": "function"
    },
    {
      "inputs": [],
      "name": "getTokenInfo",
      "outputs": [
        {
          "internalType": "string",
          "name": "",
          "type": "string"
        },
        {
          "internalType": "string",
          "name": "",
          "type": "string"
        },
        {
          "internalType": "uint256",
          "name": "",
          "type": "uint256"
        },
        {
          "internalType": "uint256",
          "name": "",
          "type": "uint256"
        }
      ],
      "stateMutability": "view",
      "type": "function"
    },
    {
      "inputs": [
        {
          "internalType": "address",
          "name": "account",
          "type": "address"
        }
      ],
      "name": "isBaseValidator",
      "outputs": [
        {
          "internalType": "bool",
          "name": "",
          "type": "bool"
        }
      ],
      "stateMutability": "view",
      "type": "function"
    },
    {
      "inputs": [
        {
          "internalType": "address",
          "name": "to",
          "type": "address"
        },
        {
          "internalType": "uint256",
          "name": "amount",
          "type": "uint256"
        }
      ],
      "name": "mint",
      "outputs": [],
      "stateMutability": "nonpayable",
      "type": "function"
    },
    {
      "inputs": [],
      "name": "name",
      "outputs": [
        {
          "internalType": "string",
          "name": "",
          "type": "string"
        }
      ],
      "stateMutability": "view",
      "type": "function"
    },
    {
      "inputs": [],
      "name": "owner",
      "outputs": [
        {
          "internalType": "address",
          "name": "",
          "type": "address"
        }
      ],
      "stateMutability": "view",
      "type": "function"
    },
    {
      "inputs": [],
      "name": "pause",
      "outputs": [],
      "stateMutability": "nonpayable",
      "type": "function"
    },
    {
      "inputs": [],
      "name": "paused",
      "outputs": [
        {
          "internalType": "bool",
          "name": "",
          "type": "bool"
        }
      ],
      "stateMutability": "view",
      "type": "function"
    },
    {
      "inputs": [
        {
          "internalType": "address",
          "name": "validator",
          "type": "address"
        }
      ],
      "name": "removeBaseValidator",
      "outputs": [],
      "stateMutability": "nonpayable",
      "type": "function"
    },
    {
      "inputs": [],
      "name": "renounceOwnership",
      "outputs": [],
      "stateMutability": "nonpayable",
      "type": "function"
    },
    {
      "inputs": [
        {
          "internalType": "uint256",
          "name": "amount",
          "type": "uint256"
        }
      ],
      "name": "stakeForBaseRewards",
      "outputs": [],
      "stateMutability": "nonpayable",
      "type": "function"
    },
    {
      "inputs": [
        {
          "internalType": "address",
          "name": "",
          "type": "address"
        }
      ],
      "name": "stakingRewards",
      "outputs": [
        {
          "internalType": "uint256",
          "name": "",
          "type": "uint256"
        }
      ],
      "stateMutability": "view",
      "type": "function"
    },
    {
      "inputs": [],
      "name": "symbol",
      "outputs": [
        {
          "internalType": "string",
          "name": "",
          "type": "string"
        }
      ],
      "stateMutability": "view",
      "type": "function"
    },
    {
      "inputs": [],
      "name": "totalSupply",
      "outputs": [
        {
          "internalType": "uint256",
          "name": "",
          "type": "uint256"
        }
      ],
      "stateMutability": "view",
      "type": "function"
    },
    {
      "inputs": [
        {
          "internalType": "address",
          "name": "to",
          "type": "address"
        },
        {
          "internalType": "uint256",
          "name": "value",
          "type": "uint256"
        }
      ],
      "name": "transfer",
      "outputs": [
        {
          "internalType": "bool",
          "name": "",
          "type": "bool"
        }
      ],
      "stateMutability": "nonpayable",
      "type": "function"
    },
    {
      "inputs": [
        {
          "internalType": "address",
          "name": "from",
          "type": "address"
        },
        {
          "internalType": "address",
          "name": "to",
          "type": "address"
        },
        {
          "internalType": "uint256",
          "name": "value",
          "type": "uint256"
        }
      ],
      "name": "transferFrom",
      "outputs": [
        {
          "internalType": "bool",
          "name": "",
          "type": "bool"
        }
      ],
      "stateMutability": "nonpayable",
      "type": "function"
    },
    {
      "inputs": [
        {
          "internalType": "address",
          "name": "newOwner",
          "type": "address"
        }
      ],
      "name": "transferOwnership",
      "outputs": [],
      "stateMutability": "nonpayable",
      "type": "function"
    },
    {
      "inputs": [],
      "name": "unpause",
      "outputs": [],
      "stateMutability": "nonpayable",
      "type": "function"
    }
  ],
  "bytecode": "0x60806040523480156200001157600080fd5b50336040518060400160405280600e81526020016d2130b9b2ab34b132902a37b5b2b760911b81525060405180604001604052806005815260200164425649424560d81b815250816003908162000069919062000390565b50600462000078828262000390565b5050506001600160a01b038116620000ab57604051631e4fbdf760e01b8152600060048201526024015b60405180910390fd5b620000b681620000d8565b506001600655620000d23369152d02c7e14af68000006200012a565b62000484565b600580546001600160a01b038381166001600160a01b0319831681179093556040519116919082907f8be0079c531659141344cd1fd0a4f28419497f9722a3daafe3b4186f6b6457e090600090a35050565b6001600160a01b038216620001565760405163ec442f0560e01b815260006004820152602401620000a2565b620001646000838362000168565b5050565b6200017262000184565b6200017f838383620001b9565b505050565b62000198600554600160a01b900460ff1690565b15620001b75760405163d93c066560e01b815260040160405180910390fd5b565b6001600160a01b038316620001e8578060026000828254620001dc91906200045c565b909155506200025c9050565b6001600160a01b038316600090815260208190526040902054818110156200023d5760405163391434e360e21b81526001600160a01b03851660048201526024810182905260448101839052606401620000a2565b6001600160a01b03841660009081526020819052604090209082900390555b6001600160a01b0382166200027a5760028054829003905562000299565b6001600160a01b03821660009081526020819052604090208054820190555b816001600160a01b0316836001600160a01b03167fddf252ad1be2c89b69c2b068fc378daa952ba7f163c4a11628f55a4df523b3ef83604051620002df91815260200190565b60405180910390a3505050565b634e487b7160e01b600052604160045260246000fd5b600181811c908216806200031757607f821691505b6020821081036200033857634e487b7160e01b600052602260045260246000fd5b50919050565b601f8211156200017f57600081815260208120601f850160051c81016020861015620003675750805b601f850160051c820191505b81811015620003885782815560010162000373565b505050505050565b81516001600160401b03811115620003ac57620003ac620002ec565b620003c481620003bd845462000302565b846200033e565b602080601f831160018114620003fc5760008415620003e35750858301515b600019600386901b1c1916600185901b17855562000388565b600085815260208120601f198616915b828110156200042d578886015182559484019460019091019084016200040c565b50858210156200044c5787850151600019600388901b60f8161c191681555b5050505050600190811b01905550565b808201808211156200047e57634e487b7160e01b600052601160045260246000fd5b92915050565b6110d980620004946000396000f3fe608060405234801561001057600080fd5b50600436106101c45760003560e01c80635c975abb116100f957806395d89b4111610097578063abb1dc4411610071578063abb1dc44146103c7578063dd62ed3e146103df578063f2fde38b14610418578063fc1b78c41461042b57600080fd5b806395d89b4114610399578063a24b44f5146103a1578063a9059cbb146103b457600080fd5b8063715018a6116100d3578063715018a61461035b5780638456cb59146103635780638af205c81461036b5780638da5cb5b1461037e57600080fd5b80635c975abb146103185780636b69e05b1461032a57806370a082311461033257600080fd5b806332cb6b0c116101665780633f4ba83a116101405780633f4ba83a146102ca57806340c10f19146102d2578063499d7f96146102e55780634f8481bd1461030557600080fd5b806332cb6b0c146102785780633748b8a6146102895780633ddb0cd41461029e57600080fd5b806321efe200116101a257806321efe2001461021c57806323b872dd146102455780632ff2e9dc14610258578063313ce5671461026957600080fd5b806306fdde03146101c9578063095ea7b3146101e757806318160ddd1461020a575b600080fd5b6101d161044e565b6040516101de9190610ef1565b60405180910390f35b6101fa6101f5366004610f20565b6104e0565b60405190151581526020016101de565b6002545b6040519081526020016101de565b61020e61022a366004610f4a565b6001600160a01b031660009081526008602052604090205490565b6101fa610253366004610f65565b6104fa565b61020e69152d02c7e14af680000081565b604051601281526020016101de565b61020e69d3c21bcecceda100000081565b61029c610297366004610fa1565b61051e565b005b6101fa6102ac366004610f4a565b6001600160a01b031660009081526007602052604090205460ff1690565b61029c610657565b61029c6102e0366004610f20565b610669565b61020e6102f3366004610f4a565b60086020526000908152604090205481565b61029c610313366004610f4a565b61072f565b600554600160a01b900460ff166101fa565b61029c610780565b61020e610340366004610f4a565b6001600160a01b031660009081526020819052604090205490565b61029c61083d565b61029c61084f565b61029c610379366004610f4a565b61085f565b6005546040516001600160a01b0390911681526020016101de565b6101d1610909565b6101fa6103af366004610f20565b610918565b6101fa6103c2366004610f20565b61095e565b6103cf61096c565b6040516101de9493929190610fba565b61020e6103ed366004610ff3565b6001600160a01b03918216600090815260016020908152604080832093909416825291909152205490565b61029c610426366004610f4a565b61099e565b6101fa610439366004610f4a565b60076020526000908152604090205460ff1681565b60606003805461045d90611026565b80601f016020809104026020016040519081016040528092919081815260200182805461048990611026565b80156104d65780601f106104ab576101008083540402835291602001916104d6565b820191906000526020600020905b8154815290600101906020018083116104b957829003601f168201915b5050505050905090565b6000336104ee8185856109d9565b60019150505b92915050565b6000336105088582856109eb565b610513858585610a6a565b506001949350505050565b610526610ac9565b61052e610af3565b6000811161057b5760405162461bcd60e51b815260206004820152601560248201527443616e6e6f74207374616b65203020746f6b656e7360581b60448201526064015b60405180910390fd5b336000908152602081905260409020548111156105d15760405162461bcd60e51b8152602060048201526014602482015273496e73756666696369656e742062616c616e636560601b6044820152606401610572565b6105dc333083610a6a565b6105e7606482611060565b3360009081526008602052604081208054909190610606908490611082565b909155503390507f6dd401e61ba732582a5eba3d54ccc3afb3609cd3ac1a166d1d36f75fc0aedcda610639606484611060565b60405190815260200160405180910390a26106546001600655565b50565b61065f610b1e565b610667610b4b565b565b610671610b1e565b69d3c21bcecceda10000008161068660025490565b6106909190611082565b11156106de5760405162461bcd60e51b815260206004820152601760248201527f576f756c6420657863656564206d617820737570706c790000000000000000006044820152606401610572565b6106e88282610ba0565b816001600160a01b03167f3f2c9d57c068687834f0de942a9babb9e5acab57d516d3480a3c16ee165a42738260405161072391815260200190565b60405180910390a25050565b610737610b1e565b6001600160a01b038116600081815260076020526040808220805460ff19169055517f2c09c296e050fec50c06b9fbebf316c8c209162f5c4dcd86c38cefa9d9c0e9d59190a250565b610788610ac9565b610790610af3565b33600090815260086020526040902054806107e35760405162461bcd60e51b81526020600482015260136024820152724e6f207265776172647320746f20636c61696d60681b6044820152606401610572565b336000818152600860205260408120556107fd9082610ba0565b60405181815233907f6dd401e61ba732582a5eba3d54ccc3afb3609cd3ac1a166d1d36f75fc0aedcda9060200160405180910390a2506106676001600655565b610845610b1e565b6106676000610bda565b610857610b1e565b610667610c2c565b610867610b1e565b6001600160a01b0381166108bd5760405162461bcd60e51b815260206004820152601960248201527f496e76616c69642076616c696461746f722061646472657373000000000000006044820152606401610572565b6001600160a01b038116600081815260076020526040808220805460ff19166001179055517f8c6ea9626fdc29376ca28fd431b37be75a271b78410474b172dd67214e3098ba9190a250565b60606004805461045d90611026565b6000610922610af3565b3360009081526007602052604090205460ff161561094d57610945338484610a6a565b5060016104f4565b610957838361095e565b9392505050565b6000336104ee818585610a6a565b60608060008061097a61044e565b610982610909565b60025469d3c21bcecceda1000000935093509350935090919293565b6109a6610b1e565b6001600160a01b0381166109d057604051631e4fbdf760e01b815260006004820152602401610572565b61065481610bda565b6109e68383836001610c6f565b505050565b6001600160a01b03838116600090815260016020908152604080832093861683529290522054600019811015610a645781811015610a5557604051637dc7a0d960e11b81526001600160a01b03841660048201526024810182905260448101839052606401610572565b610a6484848484036000610c6f565b50505050565b6001600160a01b038316610a9457604051634b637e8f60e11b815260006004820152602401610572565b6001600160a01b038216610abe5760405163ec442f0560e01b815260006004820152602401610572565b6109e6838383610d44565b600260065403610aec57604051633ee5aeb560e01b815260040160405180910390fd5b6002600655565b600554600160a01b900460ff16156106675760405163d93c066560e01b815260040160405180910390fd5b6005546001600160a01b031633146106675760405163118cdaa760e01b8152336004820152602401610572565b610b53610d57565b6005805460ff60a01b191690557f5db9ee0a495bf2e6ff9c91a7834c1ba4fdd244a5e8aa4e537bd38aeae4b073aa335b6040516001600160a01b03909116815260200160405180910390a1565b6001600160a01b038216610bca5760405163ec442f0560e01b815260006004820152602401610572565b610bd660008383610d44565b5050565b600580546001600160a01b038381166001600160a01b0319831681179093556040519116919082907f8be0079c531659141344cd1fd0a4f28419497f9722a3daafe3b4186f6b6457e090600090a35050565b610c34610af3565b6005805460ff60a01b1916600160a01b1790557f62e78cea01bee320cd4e420270b5ea74000d11b0c9f74754ebdbfc544b05a258610b833390565b6001600160a01b038416610c995760405163e602df0560e01b815260006004820152602401610572565b6001600160a01b038316610cc357604051634a1406b160e11b815260006004820152602401610572565b6001600160a01b0380851660009081526001602090815260408083209387168352929052208290558015610a6457826001600160a01b0316846001600160a01b03167f8c5be1e5ebec7d5bd14f71427d1e84f3dd0314c0f7b2291e5b200ac8c7c3b92584604051610d3691815260200190565b60405180910390a350505050565b610d4c610af3565b6109e6838383610d81565b600554600160a01b900460ff1661066757604051638dfc202b60e01b815260040160405180910390fd5b6001600160a01b038316610dac578060026000828254610da19190611082565b90915550610e1e9050565b6001600160a01b03831660009081526020819052604090205481811015610dff5760405163391434e360e21b81526001600160a01b03851660048201526024810182905260448101839052606401610572565b6001600160a01b03841660009081526020819052604090209082900390555b6001600160a01b038216610e3a57600280548290039055610e59565b6001600160a01b03821660009081526020819052604090208054820190555b816001600160a01b0316836001600160a01b03167fddf252ad1be2c89b69c2b068fc378daa952ba7f163c4a11628f55a4df523b3ef83604051610e9e91815260200190565b60405180910390a3505050565b6000815180845260005b81811015610ed157602081850181015186830182015201610eb5565b506000602082860101526020601f19601f83011685010191505092915050565b6020815260006109576020830184610eab565b80356001600160a01b0381168114610f1b57600080fd5b919050565b60008060408385031215610f3357600080fd5b610f3c83610f04565b946020939093013593505050565b600060208284031215610f5c57600080fd5b61095782610f04565b600080600060608486031215610f7a57600080fd5b610f8384610f04565b9250610f9160208501610f04565b9150604084013590509250925092565b600060208284031215610fb357600080fd5b5035919050565b608081526000610fcd6080830187610eab565b8281036020840152610fdf8187610eab565b604084019590955250506060015292915050565b6000806040838503121561100657600080fd5b61100f83610f04565b915061101d60208401610f04565b90509250929050565b600181811c9082168061103a57607f821691505b60208210810361105a57634e487b7160e01b600052602260045260246000fd5b50919050565b60008261107d57634e487b7160e01b600052601260045260246000fd5b500490565b808201808211156104f457634e487b7160e01b600052601160045260246000fdfea26469706673582212205217fc62821e07c0ecb18e24350bff2c371e3d5eec3786147f9c7f6eca12e82064736f6c63430008140033",
  "linkReferences": {},
  "deployedLinkReferences": {}
}