{
  "_format": "hh-sol-artifact-1",
  "contractName": "DeFiLending",
  "sourceName": "contracts/DeFiLending.sol",
  "abi": [
    {
      "inputs": [
        {
          "internalType": "address",
          "name": "_ethUsdPriceFeed",
          "type": "address"
        },
        {
          "internalType": "address",
          "name": "_btcUsdPriceFeed",
          "type": "address"
        }
      ],
      "stateMutability": "nonpayable",
      "type": "constructor"
    },
    {
      "inputs": [],
      "name": "EnforcedPause",
      "type": "error"
    },
    {
      "inputs": [],
      "name": "ExpectedPause",
      "type": "error"
    },
    {
      "inputs": [
        {
          "internalType": "address",
          "name": "owner",
          "type": "address"
        }
      ],
      "name": "OwnableInvalidOwner",
      "type": "error"
    },
    {
      "inputs": [
        {
          "internalType": "address",
          "name": "account",
          "type": "address"
        }
      ],
      "name": "OwnableUnauthorizedAccount",
      "type": "error"
    },
    {
      "inputs": [],
      "name": "ReentrancyGuardReentrantCall",
      "type": "error"
    },
    {
      "anonymous": false,
      "inputs": [
        {
          "indexed": true,
          "internalType": "address",
          "name": "user",
          "type": "address"
        },
        {
          "indexed": true,
          "internalType": "address",
          "name": "token",
          "type": "address"
        },
        {
          "indexed": false,
          "internalType": "uint256",
          "name": "amount",
          "type": "uint256"
        },
        {
          "indexed": false,
          "internalType": "uint256",
          "name": "usdValue",
          "type": "uint256"
        }
      ],
      "name": "CollateralDeposited",
      "type": "event"
    },
    {
      "anonymous": false,
      "inputs": [
        {
          "indexed": true,
          "internalType": "address",
          "name": "user",
          "type": "address"
        },
        {
          "indexed": true,
          "internalType": "address",
          "name": "token",
          "type": "address"
        },
        {
          "indexed": false,
          "internalType": "uint256",
          "name": "amount",
          "type": "uint256"
        }
      ],
      "name": "CollateralWithdrawn",
      "type": "event"
    },
    {
      "anonymous": false,
      "inputs": [
        {
          "indexed": false,
          "internalType": "uint256",
          "name": "newRate",
          "type": "uint256"
        }
      ],
      "name": "InterestRateUpdated",
      "type": "event"
    },
    {
      "anonymous": false,
      "inputs": [
        {
          "indexed": true,
          "internalType": "address",
          "name": "user",
          "type": "address"
        },
        {
          "indexed": true,
          "internalType": "address",
          "name": "liquidator",
          "type": "address"
        },
        {
          "indexed": false,
          "internalType": "uint256",
          "name": "debtAmount",
          "type": "uint256"
        },
        {
          "indexed": false,
          "internalType": "uint256",
          "name": "collateralSeized",
          "type": "uint256"
        }
      ],
      "name": "Liquidation",
      "type": "event"
    },
    {
      "anonymous": false,
      "inputs": [
        {
          "indexed": true,
          "internalType": "address",
          "name": "user",
          "type": "address"
        },
        {
          "indexed": false,
          "internalType": "uint256",
          "name": "amount",
          "type": "uint256"
        },
        {
          "indexed": false,
          "internalType": "uint256",
          "name": "interestRate",
          "type": "uint256"
        }
      ],
      "name": "LoanBorrowed",
      "type": "event"
    },
    {
      "anonymous": false,
      "inputs": [
        {
          "indexed": true,
          "internalType": "address",
          "name": "user",
          "type": "address"
        },
        {
          "indexed": false,
          "internalType": "uint256",
          "name": "amount",
          "type": "uint256"
        },
        {
          "indexed": false,
          "internalType": "uint256",
          "name": "interest",
          "type": "uint256"
        }
      ],
      "name": "LoanRepaid",
      "type": "event"
    },
    {
      "anonymous": false,
      "inputs": [
        {
          "indexed": true,
          "internalType": "address",
          "name": "previousOwner",
          "type": "address"
        },
        {
          "indexed": true,
          "internalType": "address",
          "name": "newOwner",
          "type": "address"
        }
      ],
      "name": "OwnershipTransferred",
      "type": "event"
    },
    {
      "anonymous": false,
      "inputs": [
        {
          "indexed": false,
          "internalType": "address",
          "name": "account",
          "type": "address"
        }
      ],
      "name": "Paused",
      "type": "event"
    },
    {
      "anonymous": false,
      "inputs": [
        {
          "indexed": true,
          "internalType": "address",
          "name": "token",
          "type": "address"
        },
        {
          "indexed": true,
          "internalType": "address",
          "name": "priceFeed",
          "type": "address"
        }
      ],
      "name": "PriceFeedUpdated",
      "type": "event"
    },
    {
      "anonymous": false,
      "inputs": [
        {
          "indexed": false,
          "internalType": "address",
          "name": "account",
          "type": "address"
        }
      ],
      "name": "Unpaused",
      "type": "event"
    },
    {
      "inputs": [],
      "name": "INTEREST_RATE",
      "outputs": [
        {
          "internalType": "uint256",
          "name": "",
          "type": "uint256"
        }
      ],
      "stateMutability": "view",
      "type": "function"
    },
    {
      "inputs": [],
      "name": "LIQUIDATION_PENALTY",
      "outputs": [
        {
          "internalType": "uint256",
          "name": "",
          "type": "uint256"
        }
      ],
      "stateMutability": "view",
      "type": "function"
    },
    {
      "inputs": [],
      "name": "LIQUIDATION_THRESHOLD",
      "outputs": [
        {
          "internalType": "uint256",
          "name": "",
          "type": "uint256"
        }
      ],
      "stateMutability": "view",
      "type": "function"
    },
    {
      "inputs": [],
      "name": "MIN_COLLATERAL_USD",
      "outputs": [
        {
          "internalType": "uint256",
          "name": "",
          "type": "uint256"
        }
      ],
      "stateMutability": "view",
      "type": "function"
    },
    {
      "inputs": [],
      "name": "addLiquidity",
      "outputs": [],
      "stateMutability": "payable",
      "type": "function"
    },
    {
      "inputs": [
        {
          "internalType": "uint256",
          "name": "_amount",
          "type": "uint256"
        }
      ],
      "name": "borrow",
      "outputs": [],
      "stateMutability": "nonpayable",
      "type": "function"
    },
    {
      "inputs": [],
      "name": "depositETHCollateral",
      "outputs": [],
      "stateMutability": "payable",
      "type": "function"
    },
    {
      "inputs": [
        {
          "internalType": "uint256",
          "name": "_ethAmount",
          "type": "uint256"
        }
      ],
      "name": "getETHValueInUSD",
      "outputs": [
        {
          "internalType": "uint256",
          "name": "",
          "type": "uint256"
        }
      ],
      "stateMutability": "view",
      "type": "function"
    },
    {
      "inputs": [
        {
          "internalType": "address",
          "name": "_user",
          "type": "address"
        }
      ],
      "name": "getHealthFactor",
      "outputs": [
        {
          "internalType": "uint256",
          "name": "",
          "type": "uint256"
        }
      ],
      "stateMutability": "view",
      "type": "function"
    },
    {
      "inputs": [],
      "name": "getLatestBTCPrice",
      "outputs": [
        {
          "internalType": "int256",
          "name": "",
          "type": "int256"
        }
      ],
      "stateMutability": "view",
      "type": "function"
    },
    {
      "inputs": [],
      "name": "getLatestETHPrice",
      "outputs": [
        {
          "internalType": "int256",
          "name": "",
          "type": "int256"
        }
      ],
      "stateMutability": "view",
      "type": "function"
    },
    {
      "inputs": [
        {
          "internalType": "address",
          "name": "_user",
          "type": "address"
        }
      ],
      "name": "getMaxBorrowableAmount",
      "outputs": [
        {
          "internalType": "uint256",
          "name": "",
          "type": "uint256"
        }
      ],
      "stateMutability": "view",
      "type": "function"
    },
    {
      "inputs": [],
      "name": "getProtocolStats",
      "outputs": [
        {
          "internalType": "uint256",
          "name": "",
          "type": "uint256"
        },
        {
          "internalType": "uint256",
          "name": "",
          "type": "uint256"
        },
        {
          "internalType": "uint256",
          "name": "",
          "type": "uint256"
        }
      ],
      "stateMutability": "view",
      "type": "function"
    },
    {
      "inputs": [
        {
          "internalType": "address",
          "name": "_user",
          "type": "address"
        }
      ],
      "name": "getUserAccount",
      "outputs": [
        {
          "components": [
            {
              "internalType": "uint256",
              "name": "collateralETH",
              "type": "uint256"
            },
            {
              "internalType": "uint256",
              "name": "collateralBTC",
              "type": "uint256"
            },
            {
              "internalType": "uint256",
              "name": "borrowedUSD",
              "type": "uint256"
            },
            {
              "internalType": "uint256",
              "name": "lastInterestUpdate",
              "type": "uint256"
            },
            {
              "internalType": "bool",
              "name": "isActive",
              "type": "bool"
            }
          ],
          "internalType": "struct DeFiLending.UserAccount",
          "name": "",
          "type": "tuple"
        }
      ],
      "stateMutability": "view",
      "type": "function"
    },
    {
      "inputs": [
        {
          "internalType": "address",
          "name": "_user",
          "type": "address"
        }
      ],
      "name": "getUserCollateralValueUSD",
      "outputs": [
        {
          "internalType": "uint256",
          "name": "",
          "type": "uint256"
        }
      ],
      "stateMutability": "view",
      "type": "function"
    },
    {
      "inputs": [
        {
          "internalType": "address",
          "name": "_user",
          "type": "address"
        },
        {
          "internalType": "uint256",
          "name": "_debtToCover",
          "type": "uint256"
        }
      ],
      "name": "liquidate",
      "outputs": [],
      "stateMutability": "payable",
      "type": "function"
    },
    {
      "inputs": [],
      "name": "owner",
      "outputs": [
        {
          "internalType": "address",
          "name": "",
          "type": "address"
        }
      ],
      "stateMutability": "view",
      "type": "function"
    },
    {
      "inputs": [],
      "name": "pause",
      "outputs": [],
      "stateMutability": "nonpayable",
      "type": "function"
    },
    {
      "inputs": [],
      "name": "paused",
      "outputs": [
        {
          "internalType": "bool",
          "name": "",
          "type": "bool"
        }
      ],
      "stateMutability": "view",
      "type": "function"
    },
    {
      "inputs": [],
      "name": "protocolReserves",
      "outputs": [
        {
          "internalType": "uint256",
          "name": "",
          "type": "uint256"
        }
      ],
      "stateMutability": "view",
      "type": "function"
    },
    {
      "inputs": [],
      "name": "renounceOwnership",
      "outputs": [],
      "stateMutability": "nonpayable",
      "type": "function"
    },
    {
      "inputs": [
        {
          "internalType": "uint256",
          "name": "_amount",
          "type": "uint256"
        }
      ],
      "name": "repay",
      "outputs": [],
      "stateMutability": "payable",
      "type": "function"
    },
    {
      "inputs": [
        {
          "internalType": "address",
          "name": "",
          "type": "address"
        }
      ],
      "name": "supportedTokens",
      "outputs": [
        {
          "internalType": "bool",
          "name": "",
          "type": "bool"
        }
      ],
      "stateMutability": "view",
      "type": "function"
    },
    {
      "inputs": [
        {
          "internalType": "address",
          "name": "",
          "type": "address"
        }
      ],
      "name": "tokenCollateralFactors",
      "outputs": [
        {
          "internalType": "uint256",
          "name": "",
          "type": "uint256"
        }
      ],
      "stateMutability": "view",
      "type": "function"
    },
    {
      "inputs": [
        {
          "internalType": "address",
          "name": "",
          "type": "address"
        }
      ],
      "name": "tokenPriceFeeds",
      "outputs": [
        {
          "internalType": "contract AggregatorV3Interface",
          "name": "",
          "type": "address"
        }
      ],
      "stateMutability": "view",
      "type": "function"
    },
    {
      "inputs": [],
      "name": "totalBorrowed",
      "outputs": [
        {
          "internalType": "uint256",
          "name": "",
          "type": "uint256"
        }
      ],
      "stateMutability": "view",
      "type": "function"
    },
    {
      "inputs": [],
      "name": "totalLiquidity",
      "outputs": [
        {
          "internalType": "uint256",
          "name": "",
          "type": "uint256"
        }
      ],
      "stateMutability": "view",
      "type": "function"
    },
    {
      "inputs": [
        {
          "internalType": "address",
          "name": "newOwner",
          "type": "address"
        }
      ],
      "name": "transferOwnership",
      "outputs": [],
      "stateMutability": "nonpayable",
      "type": "function"
    },
    {
      "inputs": [],
      "name": "unpause",
      "outputs": [],
      "stateMutability": "nonpayable",
      "type": "function"
    },
    {
      "inputs": [
        {
          "internalType": "address",
          "name": "_token",
          "type": "address"
        },
        {
          "internalType": "address",
          "name": "_priceFeed",
          "type": "address"
        }
      ],
      "name": "updatePriceFeed",
      "outputs": [],
      "stateMutability": "nonpayable",
      "type": "function"
    },
    {
      "inputs": [
        {
          "internalType": "address",
          "name": "",
          "type": "address"
        }
      ],
      "name": "userAccounts",
      "outputs": [
        {
          "internalType": "uint256",
          "name": "collateralETH",
          "type": "uint256"
        },
        {
          "internalType": "uint256",
          "name": "collateralBTC",
          "type": "uint256"
        },
        {
          "internalType": "uint256",
          "name": "borrowedUSD",
          "type": "uint256"
        },
        {
          "internalType": "uint256",
          "name": "lastInterestUpdate",
          "type": "uint256"
        },
        {
          "internalType": "bool",
          "name": "isActive",
          "type": "bool"
        }
      ],
      "stateMutability": "view",
      "type": "function"
    },
    {
      "inputs": [
        {
          "internalType": "uint256",
          "name": "_amount",
          "type": "uint256"
        }
      ],
      "name": "withdrawETHCollateral",
      "outputs": [],
      "stateMutability": "nonpayable",
      "type": "function"
    },
    {
      "inputs": [
        {
          "internalType": "uint256",
          "name": "_amount",
          "type": "uint256"
        }
      ],
      "name": "withdrawReserves",
      "outputs": [],
      "stateMutability": "nonpayable",
      "type": "function"
    },
    {
      "stateMutability": "payable",
      "type": "receive"
    }
  ],
  "bytecode": "0x60806040523480156200001157600080fd5b5060405162001b6c38038062001b6c833981016040819052620000349162000161565b600160005533806200006057604051631e4fbdf760e01b81526000600482015260240160405180910390fd5b6200006b81620000f2565b50600280546001600160a01b039384166001600160a01b031991821617909155600380549290931691161790556006602052611d4c7f54cdd369e4e8a8515e52ca72ec816c2101831ad1f18bf44102ed171459c9b4f8556001600052611b587f3e5fec24aa4dc4e5aee2e025e51e1392c72a2500577559fae9665c6d52bd6a315562000199565b600180546001600160a01b038381166001600160a01b0319831681179093556040519116919082907f8be0079c531659141344cd1fd0a4f28419497f9722a3daafe3b4186f6b6457e090600090a35050565b80516001600160a01b03811681146200015c57600080fd5b919050565b600080604083850312156200017557600080fd5b620001808362000144565b9150620001906020840162000144565b90509250929050565b6119c380620001a96000396000f3fe6080604052600436106101f25760003560e01c80638456cb591161010d578063bd9c47e3116100a0578063f2fde38b1161006f578063f2fde38b1461058f578063f4e68662146105af578063fb47e016146105dc578063fbe7b15b14610640578063fe6bcd7c1461066057600080fd5b8063bd9c47e31461051b578063c5ebeaec14610551578063d681a44914610571578063e8078d941461058757600080fd5b80639b8621d5116100dc5780639b8621d5146104cb578063a4a070bd146104e0578063b7997da1146104e8578063bcbaf4871461050857600080fd5b80638456cb591461044f5780638da5cb5b1461046457806390a8ae9b1461049657806398aa8c33146104ab57600080fd5b80634c19386c1161018557806368c4ac261161015457806368c4ac26146103c5578063715018a6146103f5578063771aceef1461040a578063777e0d861461043a57600080fd5b80634c19386c146102f75780635251d91c1461030d5780635b72a33a146103845780635c975abb1461039a57600080fd5b80632c224acd116101c15780632c224acd146102945780632c66335a146102b4578063371fd8e6146102cd5780633f4ba83a146102e257600080fd5b806315770f92146102165780631b7127391461023f578063210dff3e146102545780632bda1f391461027457600080fd5b366102115734600860008282546102099190611811565b925050819055005b600080fd5b34801561022257600080fd5b5061022c60085481565b6040519081526020015b60405180910390f35b34801561024b57600080fd5b5061022c610680565b34801561026057600080fd5b5061022c61026f366004611846565b610793565b34801561028057600080fd5b5061022c61028f366004611846565b610855565b3480156102a057600080fd5b5061022c6102af366004611861565b61087a565b3480156102c057600080fd5b5061022c6402540be40081565b6102e06102db366004611861565b61089a565b005b3480156102ee57600080fd5b506102e06109b4565b34801561030357600080fd5b5061022c60095481565b34801561031957600080fd5b5061035a610328366004611846565b600760205260009081526040902080546001820154600283015460038401546004909401549293919290919060ff1685565b6040805195865260208601949094529284019190915260608301521515608082015260a001610236565b34801561039057600080fd5b5061022c6101f481565b3480156103a657600080fd5b50600154600160a01b900460ff165b6040519015158152602001610236565b3480156103d157600080fd5b506103b56103e0366004611846565b60046020526000908152604090205460ff1681565b34801561040157600080fd5b506102e06109c6565b34801561041657600080fd5b5061041f6109d8565b60408051938452602084019290925290820152606001610236565b34801561044657600080fd5b5061022c610a2b565b34801561045b57600080fd5b506102e0610a83565b34801561047057600080fd5b506001546001600160a01b03165b6040516001600160a01b039091168152602001610236565b3480156104a257600080fd5b5061022c604b81565b3480156104b757600080fd5b506102e06104c6366004611861565b610a93565b3480156104d757600080fd5b5061022c600a81565b6102e0610b49565b3480156104f457600080fd5b506102e061050336600461187a565b610c84565b6102e06105163660046118ad565b610d77565b34801561052757600080fd5b5061047e610536366004611846565b6005602052600090815260409020546001600160a01b031681565b34801561055d57600080fd5b506102e061056c366004611861565b611084565b34801561057d57600080fd5b5061022c600a5481565b6102e0611293565b34801561059b57600080fd5b506102e06105aa366004611846565b6112b4565b3480156105bb57600080fd5b5061022c6105ca366004611846565b60066020526000908152604090205481565b3480156105e857600080fd5b506105fc6105f7366004611846565b6112ef565b6040516102369190600060a0820190508251825260208301516020830152604083015160408301526060830151606083015260808301511515608083015292915050565b34801561064c57600080fd5b506102e061065b366004611861565b611380565b34801561066c57600080fd5b5061022c61067b366004611846565b6114eb565b6000806000600360009054906101000a90046001600160a01b03166001600160a01b031663feaf968c6040518163ffffffff1660e01b815260040160a060405180830381865afa1580156106d8573d6000803e3d6000fd5b505050506040513d601f19601f820116820180604052508101906106fc91906118f1565b509350509250506000811161074d5760405162461bcd60e51b8152602060048201526012602482015271526f756e64206e6f7420636f6d706c65746560701b60448201526064015b60405180910390fd5b6000821361078d5760405162461bcd60e51b815260206004820152600d60248201526c496e76616c696420707269636560981b6044820152606401610744565b50919050565b6001600160a01b0381166000908152600760209081526040808320815160a0810183528154808252600183015494820194909452600282015492810192909252600381015460608301526004015460ff16151560808201529082901561080b5781516107fe9061087a565b6108089082611811565b90505b60208201511561084e57600061081f610680565b90506305f5e1008184602001516108369190611941565b6108409190611958565b61084a9083611811565b9150505b9392505050565b60008061086183610793565b90506064610870604b83611941565b61084e9190611958565b600080610885610a2b565b9050670de0b6b3a76400006108708285611941565b6108a26115a4565b6108aa6115ce565b33600090815260076020526040902060028101546108fd5760405162461bcd60e51b815260206004820152601060248201526f4e6f206465627420746f20726570617960801b6044820152606401610744565b610906336115f9565b6002810154600081841161091a578361091c565b815b905080836002016000828254610932919061197a565b92505081905550806009600082825461094b919061197a565b9250508190555080600860008282546109649190611811565b9091555050604080518281526000602082015233917fc7ce0a35f17b490de2a317e7fecb2cae86b1abffb03800b2f492823521382698910160405180910390a25050506109b16001600055565b50565b6109bc6116ba565b6109c46116e7565b565b6109ce6116ba565b6109c4600061173c565b6000806000806000600854116109ef576000610a18565b6009546008546109ff9190611811565b600954610a0e90612710611941565b610a189190611958565b6008546009549096909550909350915050565b6000806000600260009054906101000a90046001600160a01b03166001600160a01b031663feaf968c6040518163ffffffff1660e01b815260040160a060405180830381865afa1580156106d8573d6000803e3d6000fd5b610a8b6116ba565b6109c461178e565b610a9b6116ba565b610aa36115a4565b600a54811115610aed5760405162461bcd60e51b8152602060048201526015602482015274496e73756666696369656e7420726573657276657360581b6044820152606401610744565b80600a6000828254610aff919061197a565b90915550506001546040516001600160a01b039091169082156108fc029083906000818181858888f19350505050158015610b3e573d6000803e3d6000fd5b506109b16001600055565b610b516115a4565b610b596115ce565b60003411610ba15760405162461bcd60e51b815260206004820152601560248201527409aeae6e840c8cae0dee6d2e840e6dedaca408aa89605b1b6044820152606401610744565b6000610bac3461087a565b90506402540be400811015610c035760405162461bcd60e51b815260206004820152601860248201527f436f6c6c61746572616c2062656c6f77206d696e696d756d00000000000000006044820152606401610744565b336000908152600760205260408120805490913491839190610c26908490611811565b909155505060048101805460ff19166001179055604080513481526020810184905260009133917f95d16db8c4932fcf5d6de67364791e7178ec505c7d3829a8b34d18959c01552c910160405180910390a350506109c46001600055565b610c8c6116ba565b6001600160a01b038116610cd75760405162461bcd60e51b8152602060048201526012602482015271125b9d985b1a59081c1c9a58d9481999595960721b6044820152606401610744565b6001600160a01b038216610d0557600280546001600160a01b0319166001600160a01b038316179055610d33565b6000196001600160a01b03831601610d3357600380546001600160a01b0319166001600160a01b0383161790555b806001600160a01b0316826001600160a01b03167fa8abe0398416476db5b05737cd4da3b3cbde5012d978a6a6c3fd49d32175353660405160405180910390a35050565b610d7f6115a4565b610d876115ce565b336001600160a01b03831603610ddf5760405162461bcd60e51b815260206004820152601960248201527f43616e6e6f74206c697175696461746520796f757273656c66000000000000006044820152606401610744565b6000610dea836114eb565b9050670de0b6b3a76400008110610e395760405162461bcd60e51b8152602060048201526013602482015272506f736974696f6e206973206865616c74687960681b6044820152606401610744565b6001600160a01b03831660009081526007602052604090206002810154831115610ea55760405162461bcd60e51b815260206004820152601b60248201527f43616e6e6f7420636f766572206d6f7265207468616e206465627400000000006044820152606401610744565b6000610eb085610793565b905060006064610ec1600a82611811565b610ecb9087611941565b610ed59190611958565b905081811115610f1f5760405162461bcd60e51b8152602060048201526015602482015274139bdd08195b9bdd59da0818dbdb1b185d195c985b605a1b6044820152606401610744565b6000610f29610a2b565b610f3b83670de0b6b3a7640000611941565b610f459190611958565b8454909150811115610f995760405162461bcd60e51b815260206004820152601b60248201527f496e73756666696369656e742045544820636f6c6c61746572616c00000000006044820152606401610744565b85846002016000828254610fad919061197a565b9091555050835481908590600090610fc690849061197a565b925050819055508560096000828254610fdf919061197a565b925050819055508560086000828254610ff89190611811565b9091555050604051339082156108fc029083906000818181858888f1935050505015801561102a573d6000803e3d6000fd5b50604080518781526020810183905233916001600160a01b038a16917f4ecae3269f800df64b16cb9f6f8b0b507018888521d1cff0841823e44bc0b00d910160405180910390a350505050506110806001600055565b5050565b61108c6115a4565b6110946115ce565b600081116110d65760405162461bcd60e51b815260206004820152600f60248201526e043616e6e6f7420626f72726f77203608c1b6044820152606401610744565b8060085410156111215760405162461bcd60e51b8152602060048201526016602482015275496e73756666696369656e74206c697175696469747960501b6044820152606401610744565b336000908152600760205260409020600481015460ff166111845760405162461bcd60e51b815260206004820152601760248201527f4e6f20636f6c6c61746572616c206465706f73697465640000000000000000006044820152606401610744565b61118d336115f9565b600061119833610855565b9050808383600201546111ab9190611811565b11156111f95760405162461bcd60e51b815260206004820152601a60248201527f4578636565647320626f72726f77696e672063617061636974790000000000006044820152606401610744565b8282600201600082825461120d9190611811565b90915550504260038301556009805484919060009061122d908490611811565b925050819055508260086000828254611246919061197a565b9091555050604080518481526101f4602082015233917f85d2ace8876663584e65ae889b8c3984c9a31b5b594750252e6bda129da8283d910160405180910390a250506109b16001600055565b61129b6116ba565b34600860008282546112ad9190611811565b9091555050565b6112bc6116ba565b6001600160a01b0381166112e657604051631e4fbdf760e01b815260006004820152602401610744565b6109b18161173c565b6113236040518060a00160405280600081526020016000815260200160008152602001600081526020016000151581525090565b506001600160a01b0316600090815260076020908152604091829020825160a081018452815481526001820154928101929092526002810154928201929092526003820154606082015260049091015460ff161515608082015290565b6113886115a4565b6113906115ce565b33600090815260076020526040902080548211156113f05760405162461bcd60e51b815260206004820152601760248201527f496e73756666696369656e7420636f6c6c61746572616c0000000000000000006044820152606401610744565b81816000016000828254611404919061197a565b909155505060028101541561147a57600061141e336114eb565b9050670de0b6b3a76400008110156114785760405162461bcd60e51b815260206004820152601860248201527f576f756c64206c697175696461746520706f736974696f6e00000000000000006044820152606401610744565b505b604051339083156108fc029084906000818181858888f193505050501580156114a7573d6000803e3d6000fd5b5060405182815260009033907f45892a46e6cef329bb642da6d69846d324db43d19008edc141ed82382eda1bee9060200160405180910390a3506109b16001600055565b6001600160a01b0381166000908152600760209081526040808320815160a081018352815481526001820154938101939093526002810154918301829052600381015460608401526004015460ff16151560808301528203611551575060001992915050565b600061155c84610793565b90506000606461156d604b84611941565b6115779190611958565b604084015190915061159182670de0b6b3a7640000611941565b61159b9190611958565b95945050505050565b6002600054036115c757604051633ee5aeb560e01b815260040160405180910390fd5b6002600055565b600154600160a01b900460ff16156109c45760405163d93c066560e01b815260040160405180910390fd5b6001600160a01b0381166000908152600760205260409020600281015415801590611628575060008160030154115b156116b057600081600301544261163f919061197a565b9050600064496cebb800826101f4856002015461165c9190611941565b6116669190611941565b6116709190611958565b9050808360020160008282546116869190611811565b909155506116979050600a82611958565b600a60008282546116a89190611811565b909155505050505b4260039091015550565b6001546001600160a01b031633146109c45760405163118cdaa760e01b8152336004820152602401610744565b6116ef6117d1565b6001805460ff60a01b191690557f5db9ee0a495bf2e6ff9c91a7834c1ba4fdd244a5e8aa4e537bd38aeae4b073aa335b6040516001600160a01b03909116815260200160405180910390a1565b600180546001600160a01b038381166001600160a01b0319831681179093556040519116919082907f8be0079c531659141344cd1fd0a4f28419497f9722a3daafe3b4186f6b6457e090600090a35050565b6117966115ce565b6001805460ff60a01b1916600160a01b1790557f62e78cea01bee320cd4e420270b5ea74000d11b0c9f74754ebdbfc544b05a25861171f3390565b600154600160a01b900460ff166109c457604051638dfc202b60e01b815260040160405180910390fd5b634e487b7160e01b600052601160045260246000fd5b80820180821115611824576118246117fb565b92915050565b80356001600160a01b038116811461184157600080fd5b919050565b60006020828403121561185857600080fd5b61084e8261182a565b60006020828403121561187357600080fd5b5035919050565b6000806040838503121561188d57600080fd5b6118968361182a565b91506118a46020840161182a565b90509250929050565b600080604083850312156118c057600080fd5b6118c98361182a565b946020939093013593505050565b805169ffffffffffffffffffff8116811461184157600080fd5b600080600080600060a0868803121561190957600080fd5b611912866118d7565b9450602086015193506040860151925060608601519150611935608087016118d7565b90509295509295909350565b8082028115828204841417611824576118246117fb565b60008261197557634e487b7160e01b600052601260045260246000fd5b500490565b81810381811115611824576118246117fb56fea2646970667358221220b4b85e0ac1d69fda21097d0f22b5e751895f9638f8681ee26ce377949252224764736f6c63430008140033",
  "linkReferences": {},
  "deployedLinkReferences": {}
}