{
  "_format": "hh-sol-artifact-1",
  "contractName": "VibeForgeNFT",
  "sourceName": "contracts/VibeForgeNFT.sol",
  "abi": [
    {
      "inputs": [
        {
          "internalType": "string",
          "name": "_name",
          "type": "string"
        },
        {
          "internalType": "string",
          "name": "_symbol",
          "type": "string"
        },
        {
          "internalType": "string",
          "name": "_initialBaseURI",
          "type": "string"
        }
      ],
      "stateMutability": "nonpayable",
      "type": "constructor"
    },
    {
      "inputs": [],
      "name": "ERC721EnumerableForbiddenBatchMint",
      "type": "error"
    },
    {
      "inputs": [
        {
          "internalType": "address",
          "name": "sender",
          "type": "address"
        },
        {
          "internalType": "uint256",
          "name": "tokenId",
          "type": "uint256"
        },
        {
          "internalType": "address",
          "name": "owner",
          "type": "address"
        }
      ],
      "name": "ERC721IncorrectOwner",
      "type": "error"
    },
    {
      "inputs": [
        {
          "internalType": "address",
          "name": "operator",
          "type": "address"
        },
        {
          "internalType": "uint256",
          "name": "tokenId",
          "type": "uint256"
        }
      ],
      "name": "ERC721InsufficientApproval",
      "type": "error"
    },
    {
      "inputs": [
        {
          "internalType": "address",
          "name": "approver",
          "type": "address"
        }
      ],
      "name": "ERC721InvalidApprover",
      "type": "error"
    },
    {
      "inputs": [
        {
          "internalType": "address",
          "name": "operator",
          "type": "address"
        }
      ],
      "name": "ERC721InvalidOperator",
      "type": "error"
    },
    {
      "inputs": [
        {
          "internalType": "address",
          "name": "owner",
          "type": "address"
        }
      ],
      "name": "ERC721InvalidOwner",
      "type": "error"
    },
    {
      "inputs": [
        {
          "internalType": "address",
          "name": "receiver",
          "type": "address"
        }
      ],
      "name": "ERC721InvalidReceiver",
      "type": "error"
    },
    {
      "inputs": [
        {
          "internalType": "address",
          "name": "sender",
          "type": "address"
        }
      ],
      "name": "ERC721InvalidSender",
      "type": "error"
    },
    {
      "inputs": [
        {
          "internalType": "uint256",
          "name": "tokenId",
          "type": "uint256"
        }
      ],
      "name": "ERC721NonexistentToken",
      "type": "error"
    },
    {
      "inputs": [
        {
          "internalType": "address",
          "name": "owner",
          "type": "address"
        },
        {
          "internalType": "uint256",
          "name": "index",
          "type": "uint256"
        }
      ],
      "name": "ERC721OutOfBoundsIndex",
      "type": "error"
    },
    {
      "inputs": [],
      "name": "EnforcedPause",
      "type": "error"
    },
    {
      "inputs": [],
      "name": "ExpectedPause",
      "type": "error"
    },
    {
      "inputs": [
        {
          "internalType": "address",
          "name": "owner",
          "type": "address"
        }
      ],
      "name": "OwnableInvalidOwner",
      "type": "error"
    },
    {
      "inputs": [
        {
          "internalType": "address",
          "name": "account",
          "type": "address"
        }
      ],
      "name": "OwnableUnauthorizedAccount",
      "type": "error"
    },
    {
      "inputs": [],
      "name": "ReentrancyGuardReentrantCall",
      "type": "error"
    },
    {
      "anonymous": false,
      "inputs": [
        {
          "indexed": true,
          "internalType": "address",
          "name": "owner",
          "type": "address"
        },
        {
          "indexed": true,
          "internalType": "address",
          "name": "approved",
          "type": "address"
        },
        {
          "indexed": true,
          "internalType": "uint256",
          "name": "tokenId",
          "type": "uint256"
        }
      ],
      "name": "Approval",
      "type": "event"
    },
    {
      "anonymous": false,
      "inputs": [
        {
          "indexed": true,
          "internalType": "address",
          "name": "owner",
          "type": "address"
        },
        {
          "indexed": true,
          "internalType": "address",
          "name": "operator",
          "type": "address"
        },
        {
          "indexed": false,
          "internalType": "bool",
          "name": "approved",
          "type": "bool"
        }
      ],
      "name": "ApprovalForAll",
      "type": "event"
    },
    {
      "anonymous": false,
      "inputs": [
        {
          "indexed": false,
          "internalType": "uint256",
          "name": "_fromTokenId",
          "type": "uint256"
        },
        {
          "indexed": false,
          "internalType": "uint256",
          "name": "_toTokenId",
          "type": "uint256"
        }
      ],
      "name": "BatchMetadataUpdate",
      "type": "event"
    },
    {
      "anonymous": false,
      "inputs": [
        {
          "indexed": false,
          "internalType": "uint256",
          "name": "newMax",
          "type": "uint256"
        }
      ],
      "name": "MaxMintPerTransactionUpdated",
      "type": "event"
    },
    {
      "anonymous": false,
      "inputs": [
        {
          "indexed": false,
          "internalType": "uint256",
          "name": "_tokenId",
          "type": "uint256"
        }
      ],
      "name": "MetadataUpdate",
      "type": "event"
    },
    {
      "anonymous": false,
      "inputs": [
        {
          "indexed": false,
          "internalType": "uint256",
          "name": "newPrice",
          "type": "uint256"
        }
      ],
      "name": "MintPriceUpdated",
      "type": "event"
    },
    {
      "anonymous": false,
      "inputs": [
        {
          "indexed": true,
          "internalType": "address",
          "name": "previousOwner",
          "type": "address"
        },
        {
          "indexed": true,
          "internalType": "address",
          "name": "newOwner",
          "type": "address"
        }
      ],
      "name": "OwnershipTransferred",
      "type": "event"
    },
    {
      "anonymous": false,
      "inputs": [
        {
          "indexed": false,
          "internalType": "address",
          "name": "account",
          "type": "address"
        }
      ],
      "name": "Paused",
      "type": "event"
    },
    {
      "anonymous": false,
      "inputs": [
        {
          "indexed": false,
          "internalType": "bool",
          "name": "enabled",
          "type": "bool"
        }
      ],
      "name": "PublicMintToggled",
      "type": "event"
    },
    {
      "anonymous": false,
      "inputs": [
        {
          "indexed": false,
          "internalType": "address",
          "name": "receiver",
          "type": "address"
        },
        {
          "indexed": false,
          "internalType": "uint256",
          "name": "percentage",
          "type": "uint256"
        }
      ],
      "name": "RoyaltyInfoUpdated",
      "type": "event"
    },
    {
      "anonymous": false,
      "inputs": [
        {
          "indexed": true,
          "internalType": "address",
          "name": "to",
          "type": "address"
        },
        {
          "indexed": true,
          "internalType": "uint256",
          "name": "tokenId",
          "type": "uint256"
        },
        {
          "indexed": false,
          "internalType": "string",
          "name": "tokenURI",
          "type": "string"
        }
      ],
      "name": "TokenMinted",
      "type": "event"
    },
    {
      "anonymous": false,
      "inputs": [
        {
          "indexed": true,
          "internalType": "address",
          "name": "from",
          "type": "address"
        },
        {
          "indexed": true,
          "internalType": "address",
          "name": "to",
          "type": "address"
        },
        {
          "indexed": true,
          "internalType": "uint256",
          "name": "tokenId",
          "type": "uint256"
        }
      ],
      "name": "Transfer",
      "type": "event"
    },
    {
      "anonymous": false,
      "inputs": [
        {
          "indexed": false,
          "internalType": "address",
          "name": "account",
          "type": "address"
        }
      ],
      "name": "Unpaused",
      "type": "event"
    },
    {
      "inputs": [],
      "name": "MAX_SUPPLY",
      "outputs": [
        {
          "internalType": "uint256",
          "name": "",
          "type": "uint256"
        }
      ],
      "stateMutability": "view",
      "type": "function"
    },
    {
      "inputs": [
        {
          "internalType": "address",
          "name": "to",
          "type": "address"
        },
        {
          "internalType": "uint256",
          "name": "tokenId",
          "type": "uint256"
        }
      ],
      "name": "approve",
      "outputs": [],
      "stateMutability": "nonpayable",
      "type": "function"
    },
    {
      "inputs": [
        {
          "internalType": "address",
          "name": "owner",
          "type": "address"
        }
      ],
      "name": "balanceOf",
      "outputs": [
        {
          "internalType": "uint256",
          "name": "",
          "type": "uint256"
        }
      ],
      "stateMutability": "view",
      "type": "function"
    },
    {
      "inputs": [
        {
          "internalType": "uint256",
          "name": "tokenId",
          "type": "uint256"
        }
      ],
      "name": "getApproved",
      "outputs": [
        {
          "internalType": "address",
          "name": "",
          "type": "address"
        }
      ],
      "stateMutability": "view",
      "type": "function"
    },
    {
      "inputs": [
        {
          "internalType": "address",
          "name": "owner",
          "type": "address"
        },
        {
          "internalType": "address",
          "name": "operator",
          "type": "address"
        }
      ],
      "name": "isApprovedForAll",
      "outputs": [
        {
          "internalType": "bool",
          "name": "",
          "type": "bool"
        }
      ],
      "stateMutability": "view",
      "type": "function"
    },
    {
      "inputs": [],
      "name": "maxMintPerTransaction",
      "outputs": [
        {
          "internalType": "uint256",
          "name": "",
          "type": "uint256"
        }
      ],
      "stateMutability": "view",
      "type": "function"
    },
    {
      "inputs": [],
      "name": "maxMintPerWallet",
      "outputs": [
        {
          "internalType": "uint256",
          "name": "",
          "type": "uint256"
        }
      ],
      "stateMutability": "view",
      "type": "function"
    },
    {
      "inputs": [],
      "name": "mintPrice",
      "outputs": [
        {
          "internalType": "uint256",
          "name": "",
          "type": "uint256"
        }
      ],
      "stateMutability": "view",
      "type": "function"
    },
    {
      "inputs": [],
      "name": "name",
      "outputs": [
        {
          "internalType": "string",
          "name": "",
          "type": "string"
        }
      ],
      "stateMutability": "view",
      "type": "function"
    },
    {
      "inputs": [],
      "name": "owner",
      "outputs": [
        {
          "internalType": "address",
          "name": "",
          "type": "address"
        }
      ],
      "stateMutability": "view",
      "type": "function"
    },
    {
      "inputs": [
        {
          "internalType": "address",
          "name": "_to",
          "type": "address"
        },
        {
          "internalType": "uint256",
          "name": "_quantity",
          "type": "uint256"
        }
      ],
      "name": "ownerMint",
      "outputs": [],
      "stateMutability": "nonpayable",
      "type": "function"
    },
    {
      "inputs": [
        {
          "internalType": "uint256",
          "name": "tokenId",
          "type": "uint256"
        }
      ],
      "name": "ownerOf",
      "outputs": [
        {
          "internalType": "address",
          "name": "",
          "type": "address"
        }
      ],
      "stateMutability": "view",
      "type": "function"
    },
    {
      "inputs": [],
      "name": "pause",
      "outputs": [],
      "stateMutability": "nonpayable",
      "type": "function"
    },
    {
      "inputs": [],
      "name": "paused",
      "outputs": [
        {
          "internalType": "bool",
          "name": "",
          "type": "bool"
        }
      ],
      "stateMutability": "view",
      "type": "function"
    },
    {
      "inputs": [
        {
          "internalType": "uint256",
          "name": "_quantity",
          "type": "uint256"
        }
      ],
      "name": "publicMint",
      "outputs": [],
      "stateMutability": "payable",
      "type": "function"
    },
    {
      "inputs": [],
      "name": "publicMintEnabled",
      "outputs": [
        {
          "internalType": "bool",
          "name": "",
          "type": "bool"
        }
      ],
      "stateMutability": "view",
      "type": "function"
    },
    {
      "inputs": [],
      "name": "renounceOwnership",
      "outputs": [],
      "stateMutability": "nonpayable",
      "type": "function"
    },
    {
      "inputs": [
        {
          "internalType": "uint256",
          "name": "_tokenId",
          "type": "uint256"
        },
        {
          "internalType": "uint256",
          "name": "_salePrice",
          "type": "uint256"
        }
      ],
      "name": "royaltyInfo",
      "outputs": [
        {
          "internalType": "address",
          "name": "",
          "type": "address"
        },
        {
          "internalType": "uint256",
          "name": "",
          "type": "uint256"
        }
      ],
      "stateMutability": "view",
      "type": "function"
    },
    {
      "inputs": [],
      "name": "royaltyPercentage",
      "outputs": [
        {
          "internalType": "uint256",
          "name": "",
          "type": "uint256"
        }
      ],
      "stateMutability": "view",
      "type": "function"
    },
    {
      "inputs": [],
      "name": "royaltyReceiver",
      "outputs": [
        {
          "internalType": "address",
          "name": "",
          "type": "address"
        }
      ],
      "stateMutability": "view",
      "type": "function"
    },
    {
      "inputs": [
        {
          "internalType": "address",
          "name": "from",
          "type": "address"
        },
        {
          "internalType": "address",
          "name": "to",
          "type": "address"
        },
        {
          "internalType": "uint256",
          "name": "tokenId",
          "type": "uint256"
        }
      ],
      "name": "safeTransferFrom",
      "outputs": [],
      "stateMutability": "nonpayable",
      "type": "function"
    },
    {
      "inputs": [
        {
          "internalType": "address",
          "name": "from",
          "type": "address"
        },
        {
          "internalType": "address",
          "name": "to",
          "type": "address"
        },
        {
          "internalType": "uint256",
          "name": "tokenId",
          "type": "uint256"
        },
        {
          "internalType": "bytes",
          "name": "data",
          "type": "bytes"
        }
      ],
      "name": "safeTransferFrom",
      "outputs": [],
      "stateMutability": "nonpayable",
      "type": "function"
    },
    {
      "inputs": [
        {
          "internalType": "address",
          "name": "operator",
          "type": "address"
        },
        {
          "internalType": "bool",
          "name": "approved",
          "type": "bool"
        }
      ],
      "name": "setApprovalForAll",
      "outputs": [],
      "stateMutability": "nonpayable",
      "type": "function"
    },
    {
      "inputs": [
        {
          "internalType": "string",
          "name": "_newBaseURI",
          "type": "string"
        }
      ],
      "name": "setBaseURI",
      "outputs": [],
      "stateMutability": "nonpayable",
      "type": "function"
    },
    {
      "inputs": [
        {
          "internalType": "uint256",
          "name": "_newMax",
          "type": "uint256"
        }
      ],
      "name": "setMaxMintPerTransaction",
      "outputs": [],
      "stateMutability": "nonpayable",
      "type": "function"
    },
    {
      "inputs": [
        {
          "internalType": "uint256",
          "name": "_newMax",
          "type": "uint256"
        }
      ],
      "name": "setMaxMintPerWallet",
      "outputs": [],
      "stateMutability": "nonpayable",
      "type": "function"
    },
    {
      "inputs": [
        {
          "internalType": "uint256",
          "name": "_newPrice",
          "type": "uint256"
        }
      ],
      "name": "setMintPrice",
      "outputs": [],
      "stateMutability": "nonpayable",
      "type": "function"
    },
    {
      "inputs": [
        {
          "internalType": "bool",
          "name": "_enabled",
          "type": "bool"
        }
      ],
      "name": "setPublicMintEnabled",
      "outputs": [],
      "stateMutability": "nonpayable",
      "type": "function"
    },
    {
      "inputs": [
        {
          "internalType": "address",
          "name": "_receiver",
          "type": "address"
        },
        {
          "internalType": "uint256",
          "name": "_percentage",
          "type": "uint256"
        }
      ],
      "name": "setRoyaltyInfo",
      "outputs": [],
      "stateMutability": "nonpayable",
      "type": "function"
    },
    {
      "inputs": [
        {
          "internalType": "uint256",
          "name": "_tokenId",
          "type": "uint256"
        },
        {
          "internalType": "string",
          "name": "_tokenURI",
          "type": "string"
        }
      ],
      "name": "setTokenURI",
      "outputs": [],
      "stateMutability": "nonpayable",
      "type": "function"
    },
    {
      "inputs": [
        {
          "internalType": "bytes4",
          "name": "interfaceId",
          "type": "bytes4"
        }
      ],
      "name": "supportsInterface",
      "outputs": [
        {
          "internalType": "bool",
          "name": "",
          "type": "bool"
        }
      ],
      "stateMutability": "view",
      "type": "function"
    },
    {
      "inputs": [],
      "name": "symbol",
      "outputs": [
        {
          "internalType": "string",
          "name": "",
          "type": "string"
        }
      ],
      "stateMutability": "view",
      "type": "function"
    },
    {
      "inputs": [
        {
          "internalType": "uint256",
          "name": "index",
          "type": "uint256"
        }
      ],
      "name": "tokenByIndex",
      "outputs": [
        {
          "internalType": "uint256",
          "name": "",
          "type": "uint256"
        }
      ],
      "stateMutability": "view",
      "type": "function"
    },
    {
      "inputs": [
        {
          "internalType": "address",
          "name": "owner",
          "type": "address"
        },
        {
          "internalType": "uint256",
          "name": "index",
          "type": "uint256"
        }
      ],
      "name": "tokenOfOwnerByIndex",
      "outputs": [
        {
          "internalType": "uint256",
          "name": "",
          "type": "uint256"
        }
      ],
      "stateMutability": "view",
      "type": "function"
    },
    {
      "inputs": [
        {
          "internalType": "uint256",
          "name": "tokenId",
          "type": "uint256"
        }
      ],
      "name": "tokenURI",
      "outputs": [
        {
          "internalType": "string",
          "name": "",
          "type": "string"
        }
      ],
      "stateMutability": "view",
      "type": "function"
    },
    {
      "inputs": [
        {
          "internalType": "address",
          "name": "_owner",
          "type": "address"
        }
      ],
      "name": "tokensOfOwner",
      "outputs": [
        {
          "internalType": "uint256[]",
          "name": "",
          "type": "uint256[]"
        }
      ],
      "stateMutability": "view",
      "type": "function"
    },
    {
      "inputs": [],
      "name": "totalMinted",
      "outputs": [
        {
          "internalType": "uint256",
          "name": "",
          "type": "uint256"
        }
      ],
      "stateMutability": "view",
      "type": "function"
    },
    {
      "inputs": [],
      "name": "totalSupply",
      "outputs": [
        {
          "internalType": "uint256",
          "name": "",
          "type": "uint256"
        }
      ],
      "stateMutability": "view",
      "type": "function"
    },
    {
      "inputs": [
        {
          "internalType": "address",
          "name": "from",
          "type": "address"
        },
        {
          "internalType": "address",
          "name": "to",
          "type": "address"
        },
        {
          "internalType": "uint256",
          "name": "tokenId",
          "type": "uint256"
        }
      ],
      "name": "transferFrom",
      "outputs": [],
      "stateMutability": "nonpayable",
      "type": "function"
    },
    {
      "inputs": [
        {
          "internalType": "address",
          "name": "newOwner",
          "type": "address"
        }
      ],
      "name": "transferOwnership",
      "outputs": [],
      "stateMutability": "nonpayable",
      "type": "function"
    },
    {
      "inputs": [],
      "name": "unpause",
      "outputs": [],
      "stateMutability": "nonpayable",
      "type": "function"
    },
    {
      "inputs": [
        {
          "internalType": "address",
          "name": "",
          "type": "address"
        }
      ],
      "name": "walletMintCount",
      "outputs": [
        {
          "internalType": "uint256",
          "name": "",
          "type": "uint256"
        }
      ],
      "stateMutability": "view",
      "type": "function"
    },
    {
      "inputs": [],
      "name": "withdraw",
      "outputs": [],
      "stateMutability": "nonpayable",
      "type": "function"
    }
  ],
  "bytecode": "0x608060405266b1a2bc2ec50000600e55600a600f5560326010556011805460ff191690556102ee6014553480156200003657600080fd5b5060405162002cdc38038062002cdc833981016040819052620000599162000202565b33838360006200006a838262000322565b50600162000079828262000322565b50506001600b55506001600160a01b038116620000b057604051631e4fbdf760e01b81526000600482015260240160405180910390fd5b620000bb81620000eb565b506012620000ca828262000322565b5050601380546001600160a01b0319163317905550506001600d55620003ee565b600c80546001600160a01b038381166001600160a01b0319831681179093556040519116919082907f8be0079c531659141344cd1fd0a4f28419497f9722a3daafe3b4186f6b6457e090600090a35050565b634e487b7160e01b600052604160045260246000fd5b600082601f8301126200016557600080fd5b81516001600160401b03808211156200018257620001826200013d565b604051601f8301601f19908116603f01168101908282118183101715620001ad57620001ad6200013d565b81604052838152602092508683858801011115620001ca57600080fd5b600091505b83821015620001ee5785820183015181830184015290820190620001cf565b600093810190920192909252949350505050565b6000806000606084860312156200021857600080fd5b83516001600160401b03808211156200023057600080fd5b6200023e8783880162000153565b945060208601519150808211156200025557600080fd5b620002638783880162000153565b935060408601519150808211156200027a57600080fd5b50620002898682870162000153565b9150509250925092565b600181811c90821680620002a857607f821691505b602082108103620002c957634e487b7160e01b600052602260045260246000fd5b50919050565b601f8211156200031d57600081815260208120601f850160051c81016020861015620002f85750805b601f850160051c820191505b81811015620003195782815560010162000304565b5050505b505050565b81516001600160401b038111156200033e576200033e6200013d565b62000356816200034f845462000293565b84620002cf565b602080601f8311600181146200038e5760008415620003755750858301515b600019600386901b1c1916600185901b17855562000319565b600085815260208120601f198616915b82811015620003bf578886015182559484019460019091019084016200039e565b5085821015620003de5787850151600019600388901b60f8161c191681555b5050505050600190811b01905550565b6128de80620003fe6000396000f3fe60806040526004361061025c5760003560e01c80636352211e116101445780639fbc8713116100b6578063b88d4fde1161007a578063b88d4fde146106e4578063c87b56dd14610704578063e2e784d514610724578063e985e9c514610744578063f2fde38b14610764578063f4a0a5281461078457600080fd5b80639fbc871314610659578063a22cb46514610679578063a2309ff814610699578063afdf6134146106ae578063b228d925146106ce57600080fd5b80638456cb59116101085780638456cb59146105a15780638462151c146105b65780638a71bb2d146105e35780638da5cb5b146105f957806393ecb0c61461061757806395d89b411461064457600080fd5b80636352211e146105165780636817c76c1461053657806370a082311461054c578063715018a61461056c578063818668d71461058157600080fd5b80632db11544116101dd5780633f4ba83a116101a15780633f4ba83a1461046257806342842e0e14610477578063484b973c146104975780634f6ccce7146104b757806355f804b3146104d75780635c975abb146104f757600080fd5b80632db11544146103e45780632e6cebe5146103f75780632f745c591461041757806332cb6b0c146104375780633ccfd60b1461044d57600080fd5b80630f4161aa116102245780630f4161aa14610336578063162094c41461035057806318160ddd1461037057806323b872dd146103855780632a55205a146103a557600080fd5b806301f569971461026157806301ffc9a71461028a57806306fdde03146102ba578063081812fc146102dc578063095ea7b314610314575b600080fd5b34801561026d57600080fd5b50610277600f5481565b6040519081526020015b60405180910390f35b34801561029657600080fd5b506102aa6102a536600461225d565b6107a4565b6040519015158152602001610281565b3480156102c657600080fd5b506102cf6107b5565b60405161028191906122ca565b3480156102e857600080fd5b506102fc6102f73660046122dd565b610847565b6040516001600160a01b039091168152602001610281565b34801561032057600080fd5b5061033461032f366004612312565b610870565b005b34801561034257600080fd5b506011546102aa9060ff1681565b34801561035c57600080fd5b5061033461036b3660046123e8565b61087f565b34801561037c57600080fd5b50600854610277565b34801561039157600080fd5b506103346103a036600461242f565b6108f1565b3480156103b157600080fd5b506103c56103c036600461246b565b61097c565b604080516001600160a01b039093168352602083019190915201610281565b6103346103f23660046122dd565b6109b6565b34801561040357600080fd5b506103346104123660046122dd565b610cf0565b34801561042357600080fd5b50610277610432366004612312565b610d84565b34801561044357600080fd5b5061027761271081565b34801561045957600080fd5b50610334610de9565b34801561046e57600080fd5b50610334610ef4565b34801561048357600080fd5b5061033461049236600461242f565b610f04565b3480156104a357600080fd5b506103346104b2366004612312565b610f24565b3480156104c357600080fd5b506102776104d23660046122dd565b6110cd565b3480156104e357600080fd5b506103346104f236600461248d565b611126565b34801561050357600080fd5b50600c54600160a01b900460ff166102aa565b34801561052257600080fd5b506102fc6105313660046122dd565b61113a565b34801561054257600080fd5b50610277600e5481565b34801561055857600080fd5b506102776105673660046124c2565b611145565b34801561057857600080fd5b5061033461118d565b34801561058d57600080fd5b5061033461059c3660046124ed565b61119f565b3480156105ad57600080fd5b506103346111e8565b3480156105c257600080fd5b506105d66105d13660046124c2565b6111f8565b6040516102819190612508565b3480156105ef57600080fd5b5061027760145481565b34801561060557600080fd5b50600c546001600160a01b03166102fc565b34801561062357600080fd5b506102776106323660046124c2565b60156020526000908152604090205481565b34801561065057600080fd5b506102cf61129a565b34801561066557600080fd5b506013546102fc906001600160a01b031681565b34801561068557600080fd5b5061033461069436600461254c565b6112a9565b3480156106a557600080fd5b506102776112b4565b3480156106ba57600080fd5b506103346106c93660046122dd565b6112ca565b3480156106da57600080fd5b5061027760105481565b3480156106f057600080fd5b506103346106ff36600461257f565b611327565b34801561071057600080fd5b506102cf61071f3660046122dd565b61133f565b34801561073057600080fd5b5061033461073f366004612312565b61134a565b34801561075057600080fd5b506102aa61075f3660046125fb565b611473565b34801561077057600080fd5b5061033461077f3660046124c2565b6114a1565b34801561079057600080fd5b5061033461079f3660046122dd565b6114dc565b60006107af82611519565b92915050565b6060600080546107c490612625565b80601f01602080910402602001604051908101604052809291908181526020018280546107f090612625565b801561083d5780601f106108125761010080835404028352916020019161083d565b820191906000526020600020905b81548152906001019060200180831161082057829003601f168201915b5050505050905090565b60006108528261153e565b506000828152600460205260409020546001600160a01b03166107af565b61087b828233611577565b5050565b610887611584565b6000828152600260205260409020546001600160a01b03166108e75760405162461bcd60e51b8152602060048201526014602482015273151bdad95b88191bd95cc81b9bdd08195e1a5cdd60621b60448201526064015b60405180910390fd5b61087b82826115b1565b6001600160a01b03821661091b57604051633250574960e11b8152600060048201526024016108de565b60006109288383336115fa565b9050836001600160a01b0316816001600160a01b031614610976576040516364283d7b60e01b81526001600160a01b03808616600483015260248201849052821660448201526064016108de565b50505050565b60135460145460009182916001600160a01b0390911690612710906109a19086612675565b6109ab919061268c565b915091509250929050565b6109be611617565b6109c6611641565b60115460ff16610a185760405162461bcd60e51b815260206004820152601760248201527f5075626c6963206d696e74206e6f7420656e61626c656400000000000000000060448201526064016108de565b60008111610a685760405162461bcd60e51b815260206004820152601f60248201527f5175616e74697479206d7573742062652067726561746572207468616e20300060448201526064016108de565b600f54811115610aba5760405162461bcd60e51b815260206004820181905260248201527f45786365656473206d6178206d696e7420706572207472616e73616374696f6e60448201526064016108de565b60105433600090815260156020526040902054610ad89083906126ae565b1115610b265760405162461bcd60e51b815260206004820152601b60248201527f45786365656473206d6178206d696e74207065722077616c6c6574000000000060448201526064016108de565b61271081610b3360085490565b610b3d91906126ae565b1115610b855760405162461bcd60e51b8152602060048201526017602482015276576f756c6420657863656564206d617820737570706c7960481b60448201526064016108de565b80600e54610b939190612675565b341015610bd95760405162461bcd60e51b8152602060048201526014602482015273125b9cdd59999a58da595b9d081c185e5b595b9d60621b60448201526064016108de565b3360009081526015602052604081208054839290610bf89084906126ae565b90915550600090505b81811015610c7e57600d80549081906000610c1b836126c1565b9190505550610c2a338261166c565b80337fdf92894dc4675a7333caa5903b69cf5d8e8ec0d3f361c88207b6688e525703bb610c568361133f565b604051610c6391906122ca565b60405180910390a35080610c76816126c1565b915050610c01565b5080600e54610c8d9190612675565b341115610ce357336001600160a01b03166108fc82600e54610caf9190612675565b610cb990346126da565b6040518115909202916000818181858888f19350505050158015610ce1573d6000803e3d6000fd5b505b610ced6001600b55565b50565b610cf8611584565b60008111610d485760405162461bcd60e51b815260206004820152601a60248201527f4d6178206d7573742062652067726561746572207468616e203000000000000060448201526064016108de565b600f8190556040518181527f596477f8b791a774d03685bf37db48a044ed5013c503bde28bcbdc0393b1413a906020015b60405180910390a150565b6000610d8f83611145565b8210610dc05760405163295f44f760e21b81526001600160a01b0384166004820152602481018390526044016108de565b506001600160a01b03919091166000908152600660209081526040808320938352929052205490565b610df1611584565b610df9611617565b4780610e3e5760405162461bcd60e51b81526020600482015260146024820152734e6f2066756e647320746f20776974686472617760601b60448201526064016108de565b6000610e52600c546001600160a01b031690565b6001600160a01b03168260405160006040518083038185875af1925050503d8060008114610e9c576040519150601f19603f3d011682016040523d82523d6000602084013e610ea1565b606091505b5050905080610ee65760405162461bcd60e51b815260206004820152601160248201527015da5d1a191c985dd85b0819985a5b1959607a1b60448201526064016108de565b5050610ef26001600b55565b565b610efc611584565b610ef2611686565b610f1f83838360405180602001604052806000815250611327565b505050565b610f2c611584565b610f34611617565b6001600160a01b038216610f8a5760405162461bcd60e51b815260206004820152601b60248201527f43616e6e6f74206d696e7420746f207a65726f2061646472657373000000000060448201526064016108de565b60008111610fda5760405162461bcd60e51b815260206004820152601f60248201527f5175616e74697479206d7573742062652067726561746572207468616e20300060448201526064016108de565b61271081610fe760085490565b610ff191906126ae565b11156110395760405162461bcd60e51b8152602060048201526017602482015276576f756c6420657863656564206d617820737570706c7960481b60448201526064016108de565b60005b818110156110c257600d80549081906000611056836126c1565b9190505550611065848261166c565b80846001600160a01b03167fdf92894dc4675a7333caa5903b69cf5d8e8ec0d3f361c88207b6688e525703bb61109a8461133f565b6040516110a791906122ca565b60405180910390a350806110ba816126c1565b91505061103c565b5061087b6001600b55565b60006110d860085490565b82106111015760405163295f44f760e21b815260006004820152602481018390526044016108de565b60088281548110611114576111146126ed565b90600052602060002001549050919050565b61112e611584565b601261087b8282612749565b60006107af8261153e565b60006001600160a01b038216611171576040516322718ad960e21b8152600060048201526024016108de565b506001600160a01b031660009081526003602052604090205490565b611195611584565b610ef260006116db565b6111a7611584565b6011805460ff19168215159081179091556040519081527fa81e445dac2343503dc87e4663774817434721db7d985310a6959766e6d4480e90602001610d79565b6111f0611584565b610ef261172d565b6060600061120583611145565b905060008167ffffffffffffffff8111156112225761122261233c565b60405190808252806020026020018201604052801561124b578160200160208202803683370190505b50905060005b82811015611292576112638582610d84565b828281518110611275576112756126ed565b60209081029190910101528061128a816126c1565b915050611251565b509392505050565b6060600180546107c490612625565b61087b338383611770565b60006001600d546112c591906126da565b905090565b6112d2611584565b600081116113225760405162461bcd60e51b815260206004820152601a60248201527f4d6178206d7573742062652067726561746572207468616e203000000000000060448201526064016108de565b601055565b6113328484846108f1565b610976338585858561180f565b60606107af8261193a565b611352611584565b6001600160a01b0382166113b45760405162461bcd60e51b815260206004820152602360248201527f43616e6e6f7420736574207a65726f20616464726573732061732072656365696044820152623b32b960e91b60648201526084016108de565b6103e88111156114125760405162461bcd60e51b8152602060048201526024808201527f526f79616c74792070657263656e746167652063616e6e6f74206578636565646044820152632031302560e01b60648201526084016108de565b601380546001600160a01b0319166001600160a01b038416908117909155601482905560408051918252602082018390527ff21fccf4d64d86d532c4e4eb86c007b6ad57a460c27d724188625e755ec6cf6d91015b60405180910390a15050565b6001600160a01b03918216600090815260056020908152604080832093909416825291909152205460ff1690565b6114a9611584565b6001600160a01b0381166114d357604051631e4fbdf760e01b8152600060048201526024016108de565b610ced816116db565b6114e4611584565b600e8190556040518181527f525b762709cc2a983aec5ccdfd807a061f993c91090b5bcd7da92ca254976aaa90602001610d79565b60006001600160e01b03198216632483248360e11b14806107af57506107af82611a36565b6000818152600260205260408120546001600160a01b0316806107af57604051637e27328960e01b8152600481018490526024016108de565b610f1f8383836001611a5b565b600c546001600160a01b03163314610ef25760405163118cdaa760e01b81523360048201526024016108de565b6000828152600a602052604090206115c98282612749565b506040518281527ff8e1a15aba9398e019f0b49df1a4fde98ee17ae345cb5f6b5e2c27f5033e8ce790602001611467565b6000611604611641565b61160f848484611b61565b949350505050565b6002600b540361163a57604051633ee5aeb560e01b815260040160405180910390fd5b6002600b55565b600c54600160a01b900460ff1615610ef25760405163d93c066560e01b815260040160405180910390fd5b61087b828260405180602001604052806000815250611c2e565b61168e611c46565b600c805460ff60a01b191690557f5db9ee0a495bf2e6ff9c91a7834c1ba4fdd244a5e8aa4e537bd38aeae4b073aa335b6040516001600160a01b03909116815260200160405180910390a1565b600c80546001600160a01b038381166001600160a01b0319831681179093556040519116919082907f8be0079c531659141344cd1fd0a4f28419497f9722a3daafe3b4186f6b6457e090600090a35050565b611735611641565b600c805460ff60a01b1916600160a01b1790557f62e78cea01bee320cd4e420270b5ea74000d11b0c9f74754ebdbfc544b05a2586116be3390565b6001600160a01b0382166117a257604051630b61174360e31b81526001600160a01b03831660048201526024016108de565b6001600160a01b03838116600081815260056020908152604080832094871680845294825291829020805460ff191686151590811790915591519182527f17307eab39ab6107e8899845ad3d59bd9653f200f220920489ca2b5937696c31910160405180910390a3505050565b6001600160a01b0383163b1561193357604051630a85bd0160e11b81526001600160a01b0384169063150b7a0290611851908890889087908790600401612809565b6020604051808303816000875af192505050801561188c575060408051601f3d908101601f1916820190925261188991810190612846565b60015b6118f5573d8080156118ba576040519150601f19603f3d011682016040523d82523d6000602084013e6118bf565b606091505b5080516000036118ed57604051633250574960e11b81526001600160a01b03851660048201526024016108de565b805181602001fd5b6001600160e01b03198116630a85bd0160e11b1461193157604051633250574960e11b81526001600160a01b03851660048201526024016108de565b505b5050505050565b60606119458261153e565b506000828152600a60205260408120805461195f90612625565b80601f016020809104026020016040519081016040528092919081815260200182805461198b90612625565b80156119d85780601f106119ad576101008083540402835291602001916119d8565b820191906000526020600020905b8154815290600101906020018083116119bb57829003601f168201915b5050505050905060006119e9611c70565b905080516000036119fb575092915050565b815115611a2d578082604051602001611a15929190612863565b60405160208183030381529060405292505050919050565b61160f84611c7f565b60006001600160e01b0319821663780e9d6360e01b14806107af57506107af82611ce7565b8080611a6f57506001600160a01b03821615155b15611b31576000611a7f8461153e565b90506001600160a01b03831615801590611aab5750826001600160a01b0316816001600160a01b031614155b8015611abe5750611abc8184611473565b155b15611ae75760405163a9fbf51f60e01b81526001600160a01b03841660048201526024016108de565b8115611b2f5783856001600160a01b0316826001600160a01b03167f8c5be1e5ebec7d5bd14f71427d1e84f3dd0314c0f7b2291e5b200ac8c7c3b92560405160405180910390a45b505b5050600090815260046020526040902080546001600160a01b0319166001600160a01b0392909216919091179055565b600080611b6f858585611d37565b90506001600160a01b038116611bcc57611bc784600880546000838152600960205260408120829055600182018355919091527ff3f7a9fe364faab93b216da50a3214154f22a0a2b415b23a84c8169e8b636ee30155565b611bef565b846001600160a01b0316816001600160a01b031614611bef57611bef8185611e30565b6001600160a01b038516611c0b57611c0684611eb1565b61160f565b846001600160a01b0316816001600160a01b03161461160f5761160f8585611f60565b611c388383611fb0565b610f1f33600085858561180f565b600c54600160a01b900460ff16610ef257604051638dfc202b60e01b815260040160405180910390fd5b6060601280546107c490612625565b6060611c8a8261153e565b506000611c95611c70565b90506000815111611cb55760405180602001604052806000815250611ce0565b80611cbf84612015565b604051602001611cd0929190612863565b6040516020818303038152906040525b9392505050565b60006001600160e01b031982166380ac58cd60e01b1480611d1857506001600160e01b03198216635b5e139f60e01b145b806107af57506301ffc9a760e01b6001600160e01b03198316146107af565b6000828152600260205260408120546001600160a01b0390811690831615611d6457611d648184866120a8565b6001600160a01b03811615611da257611d81600085600080611a5b565b6001600160a01b038116600090815260036020526040902080546000190190555b6001600160a01b03851615611dd1576001600160a01b0385166000908152600360205260409020805460010190555b60008481526002602052604080822080546001600160a01b0319166001600160a01b0389811691821790925591518793918516917fddf252ad1be2c89b69c2b068fc378daa952ba7f163c4a11628f55a4df523b3ef91a4949350505050565b6000611e3b83611145565b6000838152600760209081526040808320546001600160a01b0388168452600690925290912091925090818314611e9257600083815260208281526040808320548584528184208190558352600790915290208290555b6000938452600760209081526040808620869055938552525081205550565b600854600090611ec3906001906126da565b60008381526009602052604081205460088054939450909284908110611eeb57611eeb6126ed565b906000526020600020015490508060088381548110611f0c57611f0c6126ed565b6000918252602080832090910192909255828152600990915260408082208490558582528120556008805480611f4457611f44612892565b6001900381819060005260206000200160009055905550505050565b60006001611f6d84611145565b611f7791906126da565b6001600160a01b039093166000908152600660209081526040808320868452825280832085905593825260079052919091209190915550565b6001600160a01b038216611fda57604051633250574960e11b8152600060048201526024016108de565b6000611fe8838360006115fa565b90506001600160a01b03811615610f1f576040516339e3563760e11b8152600060048201526024016108de565b606060006120228361210c565b600101905060008167ffffffffffffffff8111156120425761204261233c565b6040519080825280601f01601f19166020018201604052801561206c576020820181803683370190505b5090508181016020015b600019016f181899199a1a9b1b9c1cb0b131b232b360811b600a86061a8153600a850494508461207657509392505050565b6120b38383836121e4565b610f1f576001600160a01b0383166120e157604051637e27328960e01b8152600481018290526024016108de565b60405163177e802f60e01b81526001600160a01b0383166004820152602481018290526044016108de565b60008072184f03e93ff9f4daa797ed6e38ed64bf6a1f0160401b831061214b5772184f03e93ff9f4daa797ed6e38ed64bf6a1f0160401b830492506040015b6d04ee2d6d415b85acef81000000008310612177576d04ee2d6d415b85acef8100000000830492506020015b662386f26fc10000831061219557662386f26fc10000830492506010015b6305f5e10083106121ad576305f5e100830492506008015b61271083106121c157612710830492506004015b606483106121d3576064830492506002015b600a83106107af5760010192915050565b60006001600160a01b0383161580159061160f5750826001600160a01b0316846001600160a01b0316148061221e575061221e8484611473565b8061160f5750506000908152600460205260409020546001600160a01b03908116911614919050565b6001600160e01b031981168114610ced57600080fd5b60006020828403121561226f57600080fd5b8135611ce081612247565b60005b8381101561229557818101518382015260200161227d565b50506000910152565b600081518084526122b681602086016020860161227a565b601f01601f19169290920160200192915050565b602081526000611ce0602083018461229e565b6000602082840312156122ef57600080fd5b5035919050565b80356001600160a01b038116811461230d57600080fd5b919050565b6000806040838503121561232557600080fd5b61232e836122f6565b946020939093013593505050565b634e487b7160e01b600052604160045260246000fd5b600067ffffffffffffffff8084111561236d5761236d61233c565b604051601f8501601f19908116603f011681019082821181831017156123955761239561233c565b816040528093508581528686860111156123ae57600080fd5b858560208301376000602087830101525050509392505050565b600082601f8301126123d957600080fd5b611ce083833560208501612352565b600080604083850312156123fb57600080fd5b82359150602083013567ffffffffffffffff81111561241957600080fd5b612425858286016123c8565b9150509250929050565b60008060006060848603121561244457600080fd5b61244d846122f6565b925061245b602085016122f6565b9150604084013590509250925092565b6000806040838503121561247e57600080fd5b50508035926020909101359150565b60006020828403121561249f57600080fd5b813567ffffffffffffffff8111156124b657600080fd5b61160f848285016123c8565b6000602082840312156124d457600080fd5b611ce0826122f6565b8035801515811461230d57600080fd5b6000602082840312156124ff57600080fd5b611ce0826124dd565b6020808252825182820181905260009190848201906040850190845b8181101561254057835183529284019291840191600101612524565b50909695505050505050565b6000806040838503121561255f57600080fd5b612568836122f6565b9150612576602084016124dd565b90509250929050565b6000806000806080858703121561259557600080fd5b61259e856122f6565b93506125ac602086016122f6565b925060408501359150606085013567ffffffffffffffff8111156125cf57600080fd5b8501601f810187136125e057600080fd5b6125ef87823560208401612352565b91505092959194509250565b6000806040838503121561260e57600080fd5b612617836122f6565b9150612576602084016122f6565b600181811c9082168061263957607f821691505b60208210810361265957634e487b7160e01b600052602260045260246000fd5b50919050565b634e487b7160e01b600052601160045260246000fd5b80820281158282048414176107af576107af61265f565b6000826126a957634e487b7160e01b600052601260045260246000fd5b500490565b808201808211156107af576107af61265f565b6000600182016126d3576126d361265f565b5060010190565b818103818111156107af576107af61265f565b634e487b7160e01b600052603260045260246000fd5b601f821115610f1f57600081815260208120601f850160051c8101602086101561272a5750805b601f850160051c820191505b8181101561193157828155600101612736565b815167ffffffffffffffff8111156127635761276361233c565b612777816127718454612625565b84612703565b602080601f8311600181146127ac57600084156127945750858301515b600019600386901b1c1916600185901b178555611931565b600085815260208120601f198616915b828110156127db578886015182559484019460019091019084016127bc565b50858210156127f95787850151600019600388901b60f8161c191681555b5050505050600190811b01905550565b6001600160a01b038581168252841660208201526040810183905260806060820181905260009061283c9083018461229e565b9695505050505050565b60006020828403121561285857600080fd5b8151611ce081612247565b6000835161287581846020880161227a565b83519083019061288981836020880161227a565b01949350505050565b634e487b7160e01b600052603160045260246000fdfea26469706673582212202f8c80ea11edf0f473e70df13f17da347432f00deb2adc0fdfa157b9e7cb297364736f6c63430008140033",
  "linkReferences": {},
  "deployedLinkReferences": {}
}